{
  "contractName": "Vaccine",
  "abi": [
    {
      "inputs": [],
      "payable": false,
      "stateMutability": "nonpayable",
      "type": "constructor"
    },
    {
      "constant": true,
      "inputs": [
        {
          "internalType": "uint256",
          "name": "",
          "type": "uint256"
        }
      ],
      "name": "people",
      "outputs": [
        {
          "internalType": "uint256",
          "name": "id",
          "type": "uint256"
        },
        {
          "internalType": "string",
          "name": "name",
          "type": "string"
        },
        {
          "internalType": "string",
          "name": "personId",
          "type": "string"
        },
        {
          "internalType": "uint256",
          "name": "age",
          "type": "uint256"
        },
        {
          "internalType": "uint256",
          "name": "vaccineDate",
          "type": "uint256"
        },
        {
          "internalType": "string",
          "name": "vaccineLocation",
          "type": "string"
        },
        {
          "internalType": "bool",
          "name": "vaccinated",
          "type": "bool"
        }
      ],
      "payable": false,
      "stateMutability": "view",
      "type": "function"
    },
    {
      "constant": true,
      "inputs": [],
      "name": "totalRegistered",
      "outputs": [
        {
          "internalType": "uint256",
          "name": "",
          "type": "uint256"
        }
      ],
      "payable": false,
      "stateMutability": "view",
      "type": "function"
    },
    {
      "constant": true,
      "inputs": [
        {
          "internalType": "address",
          "name": "sender",
          "type": "address"
        }
      ],
      "name": "onlyPermittedPersonal",
      "outputs": [
        {
          "internalType": "bool",
          "name": "isPersonal",
          "type": "bool"
        }
      ],
      "payable": false,
      "stateMutability": "pure",
      "type": "function"
    },
    {
      "constant": false,
      "inputs": [
        {
          "internalType": "string",
          "name": "_name",
          "type": "string"
        },
        {
          "internalType": "string",
          "name": "_personId",
          "type": "string"
        },
        {
          "internalType": "uint256",
          "name": "age",
          "type": "uint256"
        }
      ],
      "name": "createPerson",
      "outputs": [],
      "payable": false,
      "stateMutability": "nonpayable",
      "type": "function"
    },
    {
      "constant": false,
      "inputs": [
        {
          "internalType": "uint256",
          "name": "_id",
          "type": "uint256"
        },
        {
          "internalType": "string",
          "name": "_location",
          "type": "string"
        },
        {
          "internalType": "uint256",
          "name": "_date",
          "type": "uint256"
        }
      ],
      "name": "updatePerson",
      "outputs": [],
      "payable": false,
      "stateMutability": "nonpayable",
      "type": "function"
    },
    {
      "constant": false,
      "inputs": [
        {
          "internalType": "string",
          "name": "_personId",
          "type": "string"
        }
      ],
      "name": "checkID",
      "outputs": [
        {
          "internalType": "bool",
          "name": "",
          "type": "bool"
        }
      ],
      "payable": false,
      "stateMutability": "nonpayable",
      "type": "function"
    },
    {
      "constant": false,
      "inputs": [],
      "name": "getStats",
      "outputs": [
        {
          "internalType": "uint256",
          "name": "",
          "type": "uint256"
        },
        {
          "internalType": "uint256",
          "name": "",
          "type": "uint256"
        },
        {
          "internalType": "uint256",
          "name": "",
          "type": "uint256"
        },
        {
          "internalType": "uint256",
          "name": "",
          "type": "uint256"
        }
      ],
      "payable": false,
      "stateMutability": "nonpayable",
      "type": "function"
    }
  ],
  "bytecode": "0x60806040526000805534801561001457600080fd5b506110c2806100246000396000f3fe608060405234801561001057600080fd5b506004361061007d5760003560e01c80639b0ff46f1161005b5780639b0ff46f146102815780639e7a13ad1461032e578063bec0592d146104af578063c59d4847146104d55761007d565b80630f8b5fd814610082578063927416c0146101af57806398358c88146101c9575b600080fd5b6101ad6004803603606081101561009857600080fd5b810190602081018135600160201b8111156100b257600080fd5b8201836020820111156100c457600080fd5b803590602001918460018302840111600160201b831117156100e557600080fd5b91908080601f0160208091040260200160405190810160405280939291908181526020018383808284376000920191909152509295949360208101935035915050600160201b81111561013757600080fd5b82018360208201111561014957600080fd5b803590602001918460018302840111600160201b8311171561016a57600080fd5b91908080601f0160208091040260200160405190810160405280939291908181526020018383808284376000920191909152509295505091359250610503915050565b005b6101b7610629565b60408051918252519081900360200190f35b61026d600480360360208110156101df57600080fd5b810190602081018135600160201b8111156101f957600080fd5b82018360208201111561020b57600080fd5b803590602001918460018302840111600160201b8311171561022c57600080fd5b91908080601f01602080910402602001604051908101604052809392919081815260200183838082843760009201919091525092955061062f945050505050565b604080519115158252519081900360200190f35b6101ad6004803603606081101561029757600080fd5b81359190810190604081016020820135600160201b8111156102b857600080fd5b8201836020820111156102ca57600080fd5b803590602001918460018302840111600160201b831117156102eb57600080fd5b91908080601f016020809104026020016040519081016040528093929190818152602001838380828437600092019190915250929550509135925061099f915050565b61034b6004803603602081101561034457600080fd5b5035610a28565b604051808881526020018060200180602001878152602001868152602001806020018515151515815260200184810384528a818151815260200191508051906020019080838360005b838110156103ac578181015183820152602001610394565b50505050905090810190601f1680156103d95780820380516001836020036101000a031916815260200191505b5084810383528951815289516020918201918b019080838360005b8381101561040c5781810151838201526020016103f4565b50505050905090810190601f1680156104395780820380516001836020036101000a031916815260200191505b50848103825286518152865160209182019188019080838360005b8381101561046c578181015183820152602001610454565b50505050905090810190601f1680156104995780820380516001836020036101000a031916815260200191505b509a505050505050505050505060405180910390f35b61026d600480360360208110156104c557600080fd5b50356001600160a01b0316610c13565b6104dd610c74565b604080519485526020850193909352838301919091526060830152519081900360800190f35b61050c33610c13565b61054b576040805162461bcd60e51b815260206004820152601b602482015260008051602061106e833981519152604482015290519081900360640190fd5b6000805460019081018083556040805160e081018252828152602080820189815282840189905260608301889052608083018790528351808301855287815260a084015260c0830187905293865284815291909420845181559151805192936105bc93908501929190910190610f93565b50604082015180516105d8916002840191602090910190610f93565b50606082015160038201556080820151600482015560a08201518051610608916005840191602090910190610f93565b5060c091909101516006909101805460ff1916911515919091179055505050565b60005481565b600061063a33610c13565b610679576040805162461bcd60e51b815260206004820152601b602482015260008051602061106e833981519152604482015290519081900360640190fd5b60015b60005481116109985761068d611011565b600082815260016020818152604092839020835160e0810185528154815281840180548651600296821615610100026000190190911695909504601f810185900485028601850190965285855290949193858401939092908301828280156107365780601f1061070b57610100808354040283529160200191610736565b820191906000526020600020905b81548152906001019060200180831161071957829003601f168201915b5050509183525050600282810180546040805160206001841615610100026000190190931694909404601f810183900483028501830190915280845293810193908301828280156107c85780601f1061079d576101008083540402835291602001916107c8565b820191906000526020600020905b8154815290600101906020018083116107ab57829003601f168201915b505050505081526020016003820154815260200160048201548152602001600582018054600181600116156101000203166002900480601f01602080910402602001604051908101604052809291908181526020018280546001816001161561010002031660029004801561087e5780601f106108535761010080835404028352916020019161087e565b820191906000526020600020905b81548152906001019060200180831161086157829003601f168201915b50505091835250506006919091015460ff16151560209182015260405186519293508692908201918291908401908083835b602083106108cf5780518252601f1990920191602091820191016108b0565b6001836020036101000a0380198251168184511680821785525050505050509050019150506040516020818303038152906040528051906020012081604001516040516020018082805190602001908083835b602083106109415780518252601f199092019160209182019101610922565b6001836020036101000a03801982511681845116808217855250505050505090500191505060405160208183030381529060405280519060200120141561098f5760c00151915061099a9050565b5060010161067c565b505b919050565b6109a833610c13565b6109e7576040805162461bcd60e51b815260206004820152601b602482015260008051602061106e833981519152604482015290519081900360640190fd5b600083815260016020908152604090912083519091610a0d916005840191860190610f93565b506004810191909155600601805460ff191660011790555050565b600160208181526000928352604092839020805481840180548651600296821615610100026000190190911695909504601f81018590048502860185019096528585529094919392909190830182828015610ac45780601f10610a9957610100808354040283529160200191610ac4565b820191906000526020600020905b815481529060010190602001808311610aa757829003601f168201915b50505060028085018054604080516020601f6000196101006001871615020190941695909504928301859004850281018501909152818152959695945090925090830182828015610b565780601f10610b2b57610100808354040283529160200191610b56565b820191906000526020600020905b815481529060010190602001808311610b3957829003601f168201915b505050505090806003015490806004015490806005018054600181600116156101000203166002900480601f016020809104026020016040519081016040528092919081815260200182805460018160011615610100020316600290048015610c005780601f10610bd557610100808354040283529160200191610c00565b820191906000526020600020905b815481529060010190602001808311610be357829003601f168201915b5050506006909301549192505060ff1687565b60006001600160a01b038216731e93aa466be01642d2bd89e4198d1cfa2add104f14801590610c5f57506001600160a01b0382167348e179d084516e00d1dd22f6b8508126f3e5bc8414155b15610c6c5750600061099a565b506001919050565b600080600080610c8333610c13565b610cc2576040805162461bcd60e51b815260206004820152601b602482015260008051602061106e833981519152604482015290519081900360640190fd5b600054610cda57506000925082915081905080610f8d565b60008080808060015b6000548111610f3957610cf4611011565b600082815260016020818152604092839020835160e0810185528154815281840180548651600296821615610100026000190190911695909504601f81018590048502860185019096528585529094919385840193909290830182828015610d9d5780601f10610d7257610100808354040283529160200191610d9d565b820191906000526020600020905b815481529060010190602001808311610d8057829003601f168201915b5050509183525050600282810180546040805160206001841615610100026000190190931694909404601f81018390048302850183019091528084529381019390830182828015610e2f5780601f10610e0457610100808354040283529160200191610e2f565b820191906000526020600020905b815481529060010190602001808311610e1257829003601f168201915b505050505081526020016003820154815260200160048201548152602001600582018054600181600116156101000203166002900480601f016020809104026020016040519081016040528092919081815260200182805460018160011615610100020316600290048015610ee55780601f10610eba57610100808354040283529160200191610ee5565b820191906000526020600020905b815481529060010190602001808311610ec857829003601f168201915b50505091835250506006919091015460ff16151560209091015260c0810151909150151560011415610f265760608101516001909701969490940193610f30565b8060600151860195505b50600101610ce3565b50848381610f4357fe5b049150846000540360001415610f6b5750600080549498509096509450919250610f8d915050565b84600054038481610f7857fe5b600054969a5092985090910495509293505050505b90919293565b828054600181600116156101000203166002900490600052602060002090601f016020900481019282601f10610fd457805160ff1916838001178555611001565b82800160010185558215611001579182015b82811115611001578251825591602001919060010190610fe6565b5061100d929150611050565b5090565b6040518060e001604052806000815260200160608152602001606081526020016000815260200160008152602001606081526020016000151581525090565b61106a91905b8082111561100d5760008155600101611056565b9056fe596f7520646f6e742068617665207065726d697373696f6e2121210000000000a265627a7a72315820d7c022c1ae95fc46df27978e1e3cfbd24c93b6d556925c7544e70ca8903bd21c64736f6c63430005100032",
  "source": "pragma solidity ^0.5.0;\r\n\r\ncontract Vaccine {\r\n    uint public totalRegistered = 0;\r\n\r\n    struct Person{\r\n        uint id;\r\n        string name;\r\n        string personId;\r\n        uint256 age;\r\n        uint256 vaccineDate;\r\n        string vaccineLocation;\r\n        bool vaccinated;\r\n    }\r\n\r\n    mapping(uint => Person) public people;\r\n\r\n    constructor() public {\r\n    }\r\n\r\n    function onlyPermittedPersonal(address sender) public pure returns(bool isPersonal){\r\n        if(sender != address(0x1E93aa466Be01642d2Bd89E4198D1cFa2ADd104f) &&\r\n            sender != address(0x48e179d084516e00d1DD22f6b8508126f3e5BC84)){\r\n                return false;\r\n            }\r\n        return true;\r\n    }\r\n\r\n    modifier checkPersonalAddress(){\r\n        require(onlyPermittedPersonal(msg.sender), 'You dont have permission!!!');\r\n        _;\r\n    }\r\n\r\n    function createPerson(string memory _name, string memory _personId, uint age) public checkPersonalAddress {\r\n        totalRegistered++;\r\n        people[totalRegistered] = Person(totalRegistered, _name, _personId, age, 0, \"\", false);\r\n    }\r\n\r\n    function updatePerson(uint _id, string memory _location, uint256 _date) public checkPersonalAddress{\r\n        Person storage person = people[_id];\r\n        person.vaccineLocation = _location;\r\n        person.vaccineDate = _date;\r\n        person.vaccinated = true;\r\n    }\r\n\r\n    function checkID(string memory _personId) public checkPersonalAddress returns(bool)  {\r\n        for (uint256 i = 1; i <= totalRegistered; i++){\r\n            Person memory person = people[i];\r\n            if (keccak256(abi.encodePacked(person.personId)) == keccak256(abi.encodePacked(_personId))){\r\n                return person.vaccinated;\r\n            }\r\n        }\r\n    }\r\n\r\n    function getStats() public checkPersonalAddress returns(uint, uint, uint, uint) {\r\n        if(totalRegistered == 0){\r\n            return (0, 0, 0, 0);\r\n        }\r\n        uint256 vaccinatedCount = 0;\r\n        uint totalUnVaccinatedAge = 0;\r\n        uint totalVaccinatedAge = 0;\r\n        uint avgVaccinatedAge = 0;\r\n        uint avgUnVaccinatedAge = 0;\r\n        for (uint256 i = 1; i <= totalRegistered; i++){\r\n            Person memory person = people[i];\r\n            if (person.vaccinated == true) {\r\n                vaccinatedCount++;\r\n                totalVaccinatedAge += person.age;\r\n            }\r\n            else{\r\n                totalUnVaccinatedAge += person.age;\r\n            }\r\n        }\r\n        avgVaccinatedAge = totalVaccinatedAge / vaccinatedCount;\r\n        if(totalRegistered - vaccinatedCount == 0){\r\n            return (vaccinatedCount, avgVaccinatedAge, 0, totalRegistered);\r\n        }\r\n        avgUnVaccinatedAge = totalUnVaccinatedAge / (totalRegistered - vaccinatedCount);\r\n        return (vaccinatedCount, avgVaccinatedAge, avgUnVaccinatedAge, totalRegistered);\r\n    }\r\n}",
  "sourcePath": "C:/Users/aviel/Desktop/Programming/ETH-Vaccinify/contracts/Vaccine.sol",
  "compiler": {
    "name": "solc",
    "version": "0.5.16+commit.9c3226ce.Emscripten.clang"
  },
  "schemaVersion": "3.3.3",
  "updatedAt": "2021-02-11T18:46:35.033Z",
  "networkType": "ethereum",
  "devdoc": {
    "methods": {}
  },
  "userdoc": {
    "methods": {}
  }
}