{
  "contractName": "Vaccine",
  "abi": [
    {
      "inputs": [],
      "payable": false,
      "stateMutability": "nonpayable",
      "type": "constructor"
    },
    {
      "constant": true,
      "inputs": [
        {
          "internalType": "uint256",
          "name": "",
          "type": "uint256"
        }
      ],
      "name": "people",
      "outputs": [
        {
          "internalType": "uint256",
          "name": "id",
          "type": "uint256"
        },
        {
          "internalType": "string",
          "name": "name",
          "type": "string"
        },
        {
          "internalType": "string",
          "name": "personId",
          "type": "string"
        },
        {
          "internalType": "uint256",
          "name": "age",
          "type": "uint256"
        },
        {
          "internalType": "uint256",
          "name": "vaccineDate",
          "type": "uint256"
        },
        {
          "internalType": "string",
          "name": "vaccineLocation",
          "type": "string"
        },
        {
          "internalType": "bool",
          "name": "vaccinated",
          "type": "bool"
        }
      ],
      "payable": false,
      "stateMutability": "view",
      "type": "function"
    },
    {
      "constant": true,
      "inputs": [],
      "name": "totalRegistered",
      "outputs": [
        {
          "internalType": "uint256",
          "name": "",
          "type": "uint256"
        }
      ],
      "payable": false,
      "stateMutability": "view",
      "type": "function"
    },
    {
      "constant": true,
      "inputs": [
        {
          "internalType": "address",
          "name": "sender",
          "type": "address"
        }
      ],
      "name": "onlyPermittedPersonal",
      "outputs": [
        {
          "internalType": "bool",
          "name": "isPersonal",
          "type": "bool"
        }
      ],
      "payable": false,
      "stateMutability": "view",
      "type": "function"
    },
    {
      "constant": false,
      "inputs": [
        {
          "internalType": "string",
          "name": "_name",
          "type": "string"
        },
        {
          "internalType": "string",
          "name": "_personId",
          "type": "string"
        },
        {
          "internalType": "uint256",
          "name": "age",
          "type": "uint256"
        }
      ],
      "name": "createPerson",
      "outputs": [],
      "payable": false,
      "stateMutability": "nonpayable",
      "type": "function"
    },
    {
      "constant": false,
      "inputs": [
        {
          "internalType": "uint256",
          "name": "_id",
          "type": "uint256"
        },
        {
          "internalType": "string",
          "name": "_location",
          "type": "string"
        },
        {
          "internalType": "uint256",
          "name": "_date",
          "type": "uint256"
        }
      ],
      "name": "updatePerson",
      "outputs": [],
      "payable": false,
      "stateMutability": "nonpayable",
      "type": "function"
    },
    {
      "constant": false,
      "inputs": [
        {
          "internalType": "string",
          "name": "_personId",
          "type": "string"
        }
      ],
      "name": "checkID",
      "outputs": [
        {
          "internalType": "bool",
          "name": "",
          "type": "bool"
        }
      ],
      "payable": false,
      "stateMutability": "nonpayable",
      "type": "function"
    },
    {
      "constant": false,
      "inputs": [],
      "name": "getStats",
      "outputs": [
        {
          "internalType": "uint256",
          "name": "",
          "type": "uint256"
        },
        {
          "internalType": "uint256",
          "name": "",
          "type": "uint256"
        },
        {
          "internalType": "uint256",
          "name": "",
          "type": "uint256"
        },
        {
          "internalType": "uint256",
          "name": "",
          "type": "uint256"
        }
      ],
      "payable": false,
      "stateMutability": "nonpayable",
      "type": "function"
    }
  ],
  "bytecode": "0x6000805560646080818152610d206040529060a0610c80803883395050815161002f9260019250602001906100c2565b5034801561003c57600080fd5b506040805160808101825273603a75b479a4b39f5851b75c77844d0841529fed815273f0e8e976dfc43e3d01aeddc75f155f1bc83d5ff76020820152735b38da6a701c568545dcfcb03fcb875f56beddc491810191909152731e93aa466be01642d2bd89e4198d1cfa2add104f60608201526100bc9060019060046100c2565b5061014e565b828054828255906000526020600020908101928215610117579160200282015b8281111561011757825182546001600160a01b0319166001600160a01b039091161782556020909201916001909101906100e2565b50610123929150610127565b5090565b61014b91905b808211156101235780546001600160a01b031916815560010161012d565b90565b6110e6806200015e6000396000f3fe608060405234801561001057600080fd5b506004361061007d5760003560e01c80639b0ff46f1161005b5780639b0ff46f146102815780639e7a13ad1461032e578063bec0592d146104af578063c59d4847146104d55761007d565b80630f8b5fd814610082578063927416c0146101af57806398358c88146101c9575b600080fd5b6101ad6004803603606081101561009857600080fd5b810190602081018135600160201b8111156100b257600080fd5b8201836020820111156100c457600080fd5b803590602001918460018302840111600160201b831117156100e557600080fd5b91908080601f0160208091040260200160405190810160405280939291908181526020018383808284376000920191909152509295949360208101935035915050600160201b81111561013757600080fd5b82018360208201111561014957600080fd5b803590602001918460018302840111600160201b8311171561016a57600080fd5b91908080601f0160208091040260200160405190810160405280939291908181526020018383808284376000920191909152509295505091359250610503915050565b005b6101b761062a565b60408051918252519081900360200190f35b61026d600480360360208110156101df57600080fd5b810190602081018135600160201b8111156101f957600080fd5b82018360208201111561020b57600080fd5b803590602001918460018302840111600160201b8311171561022c57600080fd5b91908080601f016020809104026020016040519081016040528093929190818152602001838380828437600092019190915250929550610630945050505050565b604080519115158252519081900360200190f35b6101ad6004803603606081101561029757600080fd5b81359190810190604081016020820135600160201b8111156102b857600080fd5b8201836020820111156102ca57600080fd5b803590602001918460018302840111600160201b831117156102eb57600080fd5b91908080601f01602080910402602001604051908101604052809392919081815260200183838082843760009201919091525092955050913592506109b8915050565b61034b6004803603602081101561034457600080fd5b5035610a41565b604051808881526020018060200180602001878152602001868152602001806020018515151515815260200184810384528a818151815260200191508051906020019080838360005b838110156103ac578181015183820152602001610394565b50505050905090810190601f1680156103d95780820380516001836020036101000a031916815260200191505b5084810383528951815289516020918201918b019080838360005b8381101561040c5781810151838201526020016103f4565b50505050905090810190601f1680156104395780820380516001836020036101000a031916815260200191505b50848103825286518152865160209182019188019080838360005b8381101561046c578181015183820152602001610454565b50505050905090810190601f1680156104995780820380516001836020036101000a031916815260200191505b509a505050505050505050505060405180910390f35b61026d600480360360208110156104c557600080fd5b50356001600160a01b0316610c2b565b6104dd610c80565b604080519485526020850193909352838301919091526060830152519081900360800190f35b61050c33610c2b565b61054b576040805162461bcd60e51b815260206004820152601b6024820152600080516020611092833981519152604482015290519081900360640190fd5b6000805460019081018083556040805160e081018252828152602080820189815282840189905260608301889052608083018790528351808301855287815260a084015260c083018790529386526002815291909420845181559151805192936105bd93908501929190910190610fb7565b50604082015180516105d9916002840191602090910190610fb7565b50606082015160038201556080820151600482015560a08201518051610609916005840191602090910190610fb7565b5060c091909101516006909101805460ff1916911515919091179055505050565b60005481565b600061063b33610c2b565b61067a576040805162461bcd60e51b815260206004820152601b6024820152600080516020611092833981519152604482015290519081900360640190fd5b60015b60005481116109b15761068e611035565b600260008381526020019081526020016000206040518060e001604052908160008201548152602001600182018054600181600116156101000203166002900480601f01602080910402602001604051908101604052809291908181526020018280546001816001161561010002031660029004801561074f5780601f106107245761010080835404028352916020019161074f565b820191906000526020600020905b81548152906001019060200180831161073257829003601f168201915b5050509183525050600282810180546040805160206001841615610100026000190190931694909404601f810183900483028501830190915280845293810193908301828280156107e15780601f106107b6576101008083540402835291602001916107e1565b820191906000526020600020905b8154815290600101906020018083116107c457829003601f168201915b505050505081526020016003820154815260200160048201548152602001600582018054600181600116156101000203166002900480601f0160208091040260200160405190810160405280929190818152602001828054600181600116156101000203166002900480156108975780601f1061086c57610100808354040283529160200191610897565b820191906000526020600020905b81548152906001019060200180831161087a57829003601f168201915b50505091835250506006919091015460ff16151560209182015260405186519293508692908201918291908401908083835b602083106108e85780518252601f1990920191602091820191016108c9565b6001836020036101000a0380198251168184511680821785525050505050509050019150506040516020818303038152906040528051906020012081604001516040516020018082805190602001908083835b6020831061095a5780518252601f19909201916020918201910161093b565b6001836020036101000a0380198251168184511680821785525050505050509050019150506040516020818303038152906040528051906020012014156109a85760c0015191506109b39050565b5060010161067d565b505b919050565b6109c133610c2b565b610a00576040805162461bcd60e51b815260206004820152601b6024820152600080516020611092833981519152604482015290519081900360640190fd5b600083815260026020908152604090912083519091610a26916005840191860190610fb7565b506004810191909155600601805460ff191660011790555050565b60026020818152600092835260409283902080546001808301805487519281161561010002600019011695909504601f8101859004850282018501909652858152909491939092909190830182828015610adc5780601f10610ab157610100808354040283529160200191610adc565b820191906000526020600020905b815481529060010190602001808311610abf57829003601f168201915b50505060028085018054604080516020601f6000196101006001871615020190941695909504928301859004850281018501909152818152959695945090925090830182828015610b6e5780601f10610b4357610100808354040283529160200191610b6e565b820191906000526020600020905b815481529060010190602001808311610b5157829003601f168201915b505050505090806003015490806004015490806005018054600181600116156101000203166002900480601f016020809104026020016040519081016040528092919081815260200182805460018160011615610100020316600290048015610c185780601f10610bed57610100808354040283529160200191610c18565b820191906000526020600020905b815481529060010190602001808311610bfb57829003601f168201915b5050506006909301549192505060ff1687565b6000805b600154811015610c775760018181548110610c4657fe5b6000918252602090912001546001600160a01b0384811691161415610c6f5760019150506109b3565b600101610c2f565b50600092915050565b600080600080610c8f33610c2b565b610cce576040805162461bcd60e51b815260206004820152601b6024820152600080516020611092833981519152604482015290519081900360640190fd5b600054610ce657506000925082915081905080610fb1565b60008080808060015b6000548111610f5d57610d00611035565b600260008381526020019081526020016000206040518060e001604052908160008201548152602001600182018054600181600116156101000203166002900480601f016020809104026020016040519081016040528092919081815260200182805460018160011615610100020316600290048015610dc15780601f10610d9657610100808354040283529160200191610dc1565b820191906000526020600020905b815481529060010190602001808311610da457829003601f168201915b5050509183525050600282810180546040805160206001841615610100026000190190931694909404601f81018390048302850183019091528084529381019390830182828015610e535780601f10610e2857610100808354040283529160200191610e53565b820191906000526020600020905b815481529060010190602001808311610e3657829003601f168201915b505050505081526020016003820154815260200160048201548152602001600582018054600181600116156101000203166002900480601f016020809104026020016040519081016040528092919081815260200182805460018160011615610100020316600290048015610f095780601f10610ede57610100808354040283529160200191610f09565b820191906000526020600020905b815481529060010190602001808311610eec57829003601f168201915b50505091835250506006919091015460ff16151560209091015260c0810151909150151560011415610f4a5760608101516001909701969490940193610f54565b8060600151860195505b50600101610cef565b50848381610f6757fe5b049150846000540360001415610f8f5750600080549498509096509450919250610fb1915050565b84600054038481610f9c57fe5b600054969a5092985090910495509293505050505b90919293565b828054600181600116156101000203166002900490600052602060002090601f016020900481019282601f10610ff857805160ff1916838001178555611025565b82800160010185558215611025579182015b8281111561102557825182559160200191906001019061100a565b50611031929150611074565b5090565b6040518060e001604052806000815260200160608152602001606081526020016000815260200160008152602001606081526020016000151581525090565b61108e91905b80821115611031576000815560010161107a565b9056fe596f7520646f6e742068617665207065726d697373696f6e2121210000000000a265627a7a723158209d195f57d911210aa457c40a663c51a1ec3de3db81d3e24ab559b3157ac9059f64736f6c63430005100032",
  "source": "pragma solidity ^0.5.0;\r\n\r\ncontract Vaccine {\r\n    uint public totalRegistered = 0;\r\n    address[] private permitted = new address[](100);\r\n    struct Person{\r\n        uint id;\r\n        string name;\r\n        string personId;\r\n        uint256 age;\r\n        uint256 vaccineDate;\r\n        string vaccineLocation;\r\n        bool vaccinated;\r\n    }\r\n\r\n    mapping(uint => Person) public people;\r\n\r\n    constructor() public {\r\n        permitted = [address(0x603a75B479a4b39F5851b75C77844D0841529FED),\r\n            address(0xf0e8e976Dfc43e3d01aEddc75f155f1Bc83D5fF7), address(0x5B38Da6a701c568545dCfcB03FcB875f56beddC4),\r\n            address(0x1E93aa466Be01642d2Bd89E4198D1cFa2ADd104f)];\r\n    }\r\n\r\n    function onlyPermittedPersonal(address sender) public view returns(bool isPersonal){\r\n        for(uint i; i < permitted.length; i++){\r\n            if(sender == permitted[i]){\r\n                return true;\r\n            }\r\n        }\r\n        return false;\r\n    }\r\n\r\n    modifier checkPersonalAddress(){\r\n        require(onlyPermittedPersonal(msg.sender), 'You dont have permission!!!');\r\n        _;\r\n    }\r\n\r\n\r\n    function createPerson(string memory _name, string memory _personId, uint age) public checkPersonalAddress {\r\n        totalRegistered++;\r\n        people[totalRegistered] = Person(totalRegistered, _name, _personId, age, 0, \"\", false);\r\n    }\r\n\r\n    function updatePerson(uint _id, string memory _location, uint256 _date) public checkPersonalAddress{\r\n        Person storage person = people[_id];\r\n        person.vaccineLocation = _location;\r\n        person.vaccineDate = _date;\r\n        person.vaccinated = true;\r\n    }\r\n\r\n    function checkID(string memory _personId) public checkPersonalAddress returns(bool)  {\r\n        for (uint256 i = 1; i <= totalRegistered; i++){\r\n            Person memory person = people[i];\r\n            if (keccak256(abi.encodePacked(person.personId)) == keccak256(abi.encodePacked(_personId))){\r\n                return person.vaccinated;\r\n            }\r\n        }\r\n    }\r\n\r\n    function getStats() public checkPersonalAddress returns(uint, uint, uint, uint) {\r\n        if(totalRegistered == 0){\r\n            return (0, 0, 0, 0);\r\n        }\r\n        uint256 vaccinatedCount = 0;\r\n        uint totalUnVaccinatedAge = 0;\r\n        uint totalVaccinatedAge = 0;\r\n        uint avgVaccinatedAge = 0;\r\n        uint avgUnVaccinatedAge = 0;\r\n        for (uint256 i = 1; i <= totalRegistered; i++){\r\n            Person memory person = people[i];\r\n            if (person.vaccinated == true) {\r\n                vaccinatedCount++;\r\n                totalVaccinatedAge += person.age;\r\n            }\r\n            else{\r\n                totalUnVaccinatedAge += person.age;\r\n            }\r\n        }\r\n        avgVaccinatedAge = totalVaccinatedAge / vaccinatedCount;\r\n        if(totalRegistered - vaccinatedCount == 0){\r\n            return (vaccinatedCount, avgVaccinatedAge, 0, totalRegistered);\r\n        }\r\n        avgUnVaccinatedAge = totalUnVaccinatedAge / (totalRegistered - vaccinatedCount);\r\n        return (vaccinatedCount, avgVaccinatedAge, avgUnVaccinatedAge, totalRegistered);\r\n    }\r\n}",
  "sourcePath": "C:/Users/aviel/Desktop/Programming/ETH-Vaccinify/contracts/Vaccine.sol",
  "compiler": {
    "name": "solc",
    "version": "0.5.16+commit.9c3226ce.Emscripten.clang"
  },
  "schemaVersion": "3.3.3",
  "updatedAt": "2021-02-15T15:47:16.219Z",
  "networkType": "ethereum",
  "devdoc": {
    "methods": {}
  },
  "userdoc": {
    "methods": {}
  }
}