{
  "contractName": "Vaccine",
  "abi": [
    {
      "inputs": [],
      "payable": false,
      "stateMutability": "nonpayable",
      "type": "constructor"
    },
    {
      "constant": true,
      "inputs": [
        {
          "internalType": "uint256",
          "name": "",
          "type": "uint256"
        }
      ],
      "name": "people",
      "outputs": [
        {
          "internalType": "uint256",
          "name": "id",
          "type": "uint256"
        },
        {
          "internalType": "string",
          "name": "name",
          "type": "string"
        },
        {
          "internalType": "string",
          "name": "personId",
          "type": "string"
        },
        {
          "internalType": "uint256",
          "name": "age",
          "type": "uint256"
        },
        {
          "internalType": "uint256",
          "name": "vaccineDate",
          "type": "uint256"
        },
        {
          "internalType": "string",
          "name": "vaccineLocation",
          "type": "string"
        },
        {
          "internalType": "bool",
          "name": "vaccinated",
          "type": "bool"
        }
      ],
      "payable": false,
      "stateMutability": "view",
      "type": "function"
    },
    {
      "constant": true,
      "inputs": [],
      "name": "totalRegistered",
      "outputs": [
        {
          "internalType": "uint256",
          "name": "",
          "type": "uint256"
        }
      ],
      "payable": false,
      "stateMutability": "view",
      "type": "function"
    },
    {
      "constant": false,
      "inputs": [
        {
          "internalType": "string",
          "name": "_name",
          "type": "string"
        },
        {
          "internalType": "string",
          "name": "_personId",
          "type": "string"
        },
        {
          "internalType": "uint256",
          "name": "age",
          "type": "uint256"
        }
      ],
      "name": "createPerson",
      "outputs": [],
      "payable": false,
      "stateMutability": "nonpayable",
      "type": "function"
    },
    {
      "constant": false,
      "inputs": [
        {
          "internalType": "uint256",
          "name": "_id",
          "type": "uint256"
        },
        {
          "internalType": "string",
          "name": "_location",
          "type": "string"
        },
        {
          "internalType": "uint256",
          "name": "_date",
          "type": "uint256"
        }
      ],
      "name": "updatePerson",
      "outputs": [],
      "payable": false,
      "stateMutability": "nonpayable",
      "type": "function"
    },
    {
      "constant": true,
      "inputs": [
        {
          "internalType": "string",
          "name": "_personId",
          "type": "string"
        }
      ],
      "name": "checkID",
      "outputs": [
        {
          "internalType": "bool",
          "name": "",
          "type": "bool"
        }
      ],
      "payable": false,
      "stateMutability": "view",
      "type": "function"
    },
    {
      "constant": true,
      "inputs": [],
      "name": "getStats",
      "outputs": [
        {
          "internalType": "uint256",
          "name": "",
          "type": "uint256"
        },
        {
          "internalType": "uint256",
          "name": "",
          "type": "uint256"
        },
        {
          "internalType": "uint256",
          "name": "",
          "type": "uint256"
        },
        {
          "internalType": "uint256",
          "name": "",
          "type": "uint256"
        }
      ],
      "payable": false,
      "stateMutability": "view",
      "type": "function"
    }
  ],
  "bytecode": "0x60806040526000805534801561001457600080fd5b50610fbf806100246000396000f3fe608060405234801561001057600080fd5b50600436106100625760003560e01c80630f8b5fd814610067578063927416c01461019457806398358c88146101ae5780639b0ff46f146102665780639e7a13ad14610313578063c59d484714610494575b600080fd5b6101926004803603606081101561007d57600080fd5b810190602081018135600160201b81111561009757600080fd5b8201836020820111156100a957600080fd5b803590602001918460018302840111600160201b831117156100ca57600080fd5b91908080601f0160208091040260200160405190810160405280939291908181526020018383808284376000920191909152509295949360208101935035915050600160201b81111561011c57600080fd5b82018360208201111561012e57600080fd5b803590602001918460018302840111600160201b8311171561014f57600080fd5b91908080601f01602080910402602001604051908101604052809392919081815260200183838082843760009201919091525092955050913592506104c2915050565b005b61019c6105de565b60408051918252519081900360200190f35b610252600480360360208110156101c457600080fd5b810190602081018135600160201b8111156101de57600080fd5b8201836020820111156101f057600080fd5b803590602001918460018302840111600160201b8311171561021157600080fd5b91908080601f0160208091040260200160405190810160405280939291908181526020018383808284376000920191909152509295506105e4945050505050565b604080519115158252519081900360200190f35b6101926004803603606081101561027c57600080fd5b81359190810190604081016020820135600160201b81111561029d57600080fd5b8201836020820111156102af57600080fd5b803590602001918460018302840111600160201b831117156102d057600080fd5b91908080601f016020809104026020016040519081016040528093929190818152602001838380828437600092019190915250929550509135925061094a915050565b6103306004803603602081101561032957600080fd5b50356109c9565b604051808881526020018060200180602001878152602001868152602001806020018515151515815260200184810384528a818151815260200191508051906020019080838360005b83811015610391578181015183820152602001610379565b50505050905090810190601f1680156103be5780820380516001836020036101000a031916815260200191505b5084810383528951815289516020918201918b019080838360005b838110156103f15781810151838201526020016103d9565b50505050905090810190601f16801561041e5780820380516001836020036101000a031916815260200191505b50848103825286518152865160209182019188019080838360005b83811015610451578181015183820152602001610439565b50505050905090810190601f16801561047e5780820380516001836020036101000a031916815260200191505b509a505050505050505050505060405180910390f35b61049c610bb4565b604080519485526020850193909352838301919091526060830152519081900360800190f35b33731e93aa466be01642d2bd89e4198d1cfa2add104f14806104f75750337348e179d084516e00d1dd22f6b8508126f3e5bc84145b61050057600080fd5b6000805460019081018083556040805160e081018252828152602080820189815282840189905260608301889052608083018790528351808301855287815260a084015260c08301879052938652848152919094208451815591518051929361057193908501929190910190610eb0565b506040820151805161058d916002840191602090910190610eb0565b50606082015160038201556080820151600482015560a082015180516105bd916005840191602090910190610eb0565b5060c091909101516006909101805460ff1916911515919091179055505050565b60005481565b600033731e93aa466be01642d2bd89e4198d1cfa2add104f148061061b5750337348e179d084516e00d1dd22f6b8508126f3e5bc84145b61062457600080fd5b60015b600054811161094357610638610f2e565b600082815260016020818152604092839020835160e0810185528154815281840180548651600296821615610100026000190190911695909504601f810185900485028601850190965285855290949193858401939092908301828280156106e15780601f106106b6576101008083540402835291602001916106e1565b820191906000526020600020905b8154815290600101906020018083116106c457829003601f168201915b5050509183525050600282810180546040805160206001841615610100026000190190931694909404601f810183900483028501830190915280845293810193908301828280156107735780601f1061074857610100808354040283529160200191610773565b820191906000526020600020905b81548152906001019060200180831161075657829003601f168201915b505050505081526020016003820154815260200160048201548152602001600582018054600181600116156101000203166002900480601f0160208091040260200160405190810160405280929190818152602001828054600181600116156101000203166002900480156108295780601f106107fe57610100808354040283529160200191610829565b820191906000526020600020905b81548152906001019060200180831161080c57829003601f168201915b50505091835250506006919091015460ff16151560209182015260405186519293508692908201918291908401908083835b6020831061087a5780518252601f19909201916020918201910161085b565b6001836020036101000a0380198251168184511680821785525050505050509050019150506040516020818303038152906040528051906020012081604001516040516020018082805190602001908083835b602083106108ec5780518252601f1990920191602091820191016108cd565b6001836020036101000a03801982511681845116808217855250505050505090500191505060405160208183030381529060405280519060200120141561093a5760c0015191506109459050565b50600101610627565b505b919050565b33731e93aa466be01642d2bd89e4198d1cfa2add104f148061097f5750337348e179d084516e00d1dd22f6b8508126f3e5bc84145b61098857600080fd5b6000838152600160209081526040909120835190916109ae916005840191860190610eb0565b506004810191909155600601805460ff191660011790555050565b600160208181526000928352604092839020805481840180548651600296821615610100026000190190911695909504601f81018590048502860185019096528585529094919392909190830182828015610a655780601f10610a3a57610100808354040283529160200191610a65565b820191906000526020600020905b815481529060010190602001808311610a4857829003601f168201915b50505060028085018054604080516020601f6000196101006001871615020190941695909504928301859004850281018501909152818152959695945090925090830182828015610af75780601f10610acc57610100808354040283529160200191610af7565b820191906000526020600020905b815481529060010190602001808311610ada57829003601f168201915b505050505090806003015490806004015490806005018054600181600116156101000203166002900480601f016020809104026020016040519081016040528092919081815260200182805460018160011615610100020316600290048015610ba15780601f10610b7657610100808354040283529160200191610ba1565b820191906000526020600020905b815481529060010190602001808311610b8457829003601f168201915b5050506006909301549192505060ff1687565b600080808033731e93aa466be01642d2bd89e4198d1cfa2add104f1480610bee5750337348e179d084516e00d1dd22f6b8508126f3e5bc84145b610bf757600080fd5b60008080808060015b6000548111610e5657610c11610f2e565b600082815260016020818152604092839020835160e0810185528154815281840180548651600296821615610100026000190190911695909504601f81018590048502860185019096528585529094919385840193909290830182828015610cba5780601f10610c8f57610100808354040283529160200191610cba565b820191906000526020600020905b815481529060010190602001808311610c9d57829003601f168201915b5050509183525050600282810180546040805160206001841615610100026000190190931694909404601f81018390048302850183019091528084529381019390830182828015610d4c5780601f10610d2157610100808354040283529160200191610d4c565b820191906000526020600020905b815481529060010190602001808311610d2f57829003601f168201915b505050505081526020016003820154815260200160048201548152602001600582018054600181600116156101000203166002900480601f016020809104026020016040519081016040528092919081815260200182805460018160011615610100020316600290048015610e025780601f10610dd757610100808354040283529160200191610e02565b820191906000526020600020905b815481529060010190602001808311610de557829003601f168201915b50505091835250506006919091015460ff16151560209091015260c0810151909150151560011415610e435760608101516001909701969490940193610e4d565b8060600151860195505b50600101610c00565b50848381610e6057fe5b049150846000540360001415610e885750600080549498509096509450919250610eaa915050565b84600054038481610e9557fe5b600054969a5092985090910495509293505050505b90919293565b828054600181600116156101000203166002900490600052602060002090601f016020900481019282601f10610ef157805160ff1916838001178555610f1e565b82800160010185558215610f1e579182015b82811115610f1e578251825591602001919060010190610f03565b50610f2a929150610f6d565b5090565b6040518060e001604052806000815260200160608152602001606081526020016000815260200160008152602001606081526020016000151581525090565b610f8791905b80821115610f2a5760008155600101610f73565b9056fea265627a7a72315820e94f966baaadcdf551476f8aa349aac47ad95c744aa0f0c572452dd7a18f293d64736f6c63430005100032",
  "source": "pragma solidity ^0.5.0;\r\n\r\ncontract Vaccine {\r\n    uint public totalRegistered = 0;\r\n\r\n    struct Person{\r\n        uint id;\r\n        string name;\r\n        string personId;\r\n        uint256 age;\r\n        uint256 vaccineDate;\r\n        string vaccineLocation;\r\n        bool vaccinated;\r\n    }\r\n\r\n    mapping(uint => Person) public people;\r\n\r\n    constructor() public {\r\n    }\r\n\r\n    modifier onlyPermittedPersonal{\r\n        require(msg.sender == address(0x1E93aa466Be01642d2Bd89E4198D1cFa2ADd104f) ||\r\n         msg.sender == address(0x48e179d084516e00d1DD22f6b8508126f3e5BC84));\r\n        _;\r\n    }\r\n//0x99c00fa555d7add214edeb7665cfe3a77e6346e23d895b87fd72f7268cd71a07\r\n    function createPerson(string memory _name, string memory _personId, uint age) public onlyPermittedPersonal {\r\n        totalRegistered++;\r\n        people[totalRegistered] = Person(totalRegistered, _name, _personId, age, 0, \"\", false);\r\n    }\r\n\r\n    function updatePerson(uint _id, string memory _location, uint256 _date) public onlyPermittedPersonal{\r\n        Person storage person = people[_id];\r\n        person.vaccineLocation = _location;\r\n        person.vaccineDate = _date;\r\n        person.vaccinated = true;\r\n    }\r\n\r\n    function checkID(string memory _personId) public onlyPermittedPersonal view returns(bool)  {\r\n        for (uint256 i = 1; i <= totalRegistered; i++){\r\n            Person memory person = people[i];\r\n            if (keccak256(abi.encodePacked(person.personId)) == keccak256(abi.encodePacked(_personId))){\r\n                return person.vaccinated;\r\n            }\r\n        }\r\n    }\r\n\r\n    function getStats() public onlyPermittedPersonal view returns(uint, uint, uint, uint) {\r\n        uint256 vaccinatedCount = 0;\r\n        uint totalUnVaccinatedAge = 0;\r\n        uint totalVaccinatedAge = 0;\r\n        uint avgVaccinatedAge = 0;\r\n        uint avgUnVaccinatedAge = 0;\r\n        for (uint256 i = 1; i <= totalRegistered; i++){\r\n            Person memory person = people[i];\r\n            if (person.vaccinated == true) {\r\n                vaccinatedCount++;\r\n                totalVaccinatedAge += person.age;\r\n            }\r\n            else{\r\n                totalUnVaccinatedAge += person.age;\r\n            }\r\n        }\r\n        avgVaccinatedAge = totalVaccinatedAge / vaccinatedCount;\r\n        if(totalRegistered - vaccinatedCount == 0){\r\n            return (vaccinatedCount, avgVaccinatedAge, 0, totalRegistered);\r\n        }\r\n        avgUnVaccinatedAge = totalUnVaccinatedAge / (totalRegistered - vaccinatedCount);\r\n        return (vaccinatedCount, avgVaccinatedAge, avgUnVaccinatedAge, totalRegistered);\r\n    }\r\n}",
  "sourcePath": "C:/Users/aviel/Desktop/Programming/ETH-Vaccinify/contracts/Vaccine.sol",
  "compiler": {
    "name": "solc",
    "version": "0.5.16+commit.9c3226ce.Emscripten.clang"
  },
  "schemaVersion": "3.3.3",
  "updatedAt": "2021-02-11T11:28:15.236Z",
  "networkType": "ethereum",
  "devdoc": {
    "methods": {}
  },
  "userdoc": {
    "methods": {}
  }
}