{
  "contractName": "Vaccine",
  "abi": [
    {
      "inputs": [
        {
          "internalType": "string",
          "name": "_name",
          "type": "string"
        },
        {
          "internalType": "string",
          "name": "_personId",
          "type": "string"
        }
      ],
      "payable": false,
      "stateMutability": "nonpayable",
      "type": "constructor"
    },
    {
      "constant": true,
      "inputs": [
        {
          "internalType": "uint256",
          "name": "",
          "type": "uint256"
        }
      ],
      "name": "people",
      "outputs": [
        {
          "internalType": "uint256",
          "name": "id",
          "type": "uint256"
        },
        {
          "internalType": "string",
          "name": "name",
          "type": "string"
        },
        {
          "internalType": "string",
          "name": "personId",
          "type": "string"
        },
        {
          "internalType": "uint256",
          "name": "vaccineDate",
          "type": "uint256"
        },
        {
          "internalType": "string",
          "name": "vaccineLocation",
          "type": "string"
        },
        {
          "internalType": "bool",
          "name": "vaccinated",
          "type": "bool"
        }
      ],
      "payable": false,
      "stateMutability": "view",
      "type": "function"
    },
    {
      "constant": true,
      "inputs": [],
      "name": "vaccinatedCount",
      "outputs": [
        {
          "internalType": "uint256",
          "name": "",
          "type": "uint256"
        }
      ],
      "payable": false,
      "stateMutability": "view",
      "type": "function"
    },
    {
      "constant": false,
      "inputs": [
        {
          "internalType": "string",
          "name": "_name",
          "type": "string"
        },
        {
          "internalType": "string",
          "name": "_personId",
          "type": "string"
        }
      ],
      "name": "createPerson",
      "outputs": [],
      "payable": false,
      "stateMutability": "nonpayable",
      "type": "function"
    }
  ],
  "bytecode": "0x60806040526000805534801561001457600080fd5b506040516109a33803806109a38339818101604052604081101561003757600080fd5b810190808051604051939291908464010000000082111561005757600080fd5b90830190602082018581111561006c57600080fd5b825164010000000081118282018810171561008657600080fd5b82525081516020918201929091019080838360005b838110156100b357818101518382015260200161009b565b50505050905090810190601f1680156100e05780820380516001836020036101000a031916815260200191505b506040526020018051604051939291908464010000000082111561010357600080fd5b90830190602082018581111561011857600080fd5b825164010000000081118282018810171561013257600080fd5b82525081516020918201929091019080838360005b8381101561015f578181015183820152602001610147565b50505050905090810190601f16801561018c5780820380516001836020036101000a031916815260200191505b506040525050506101a382826101aa60201b60201c565b5050610311565b6000805460019081018083556040805160c08101825282815260208082018881528284018890526060830187905283518083018552878152608084015260a08301879052938652848152919094208451815591518051929361021493908501929190910190610276565b5060408201518051610230916002840191602090910190610276565b506060820151600382015560808201518051610256916004840191602090910190610276565b5060a091909101516005909101805460ff19169115159190911790555050565b828054600181600116156101000203166002900490600052602060002090601f016020900481019282601f106102b757805160ff19168380011785556102e4565b828001600101855582156102e4579182015b828111156102e45782518255916020019190600101906102c9565b506102f09291506102f4565b5090565b61030e91905b808211156102f057600081556001016102fa565b90565b610683806103206000396000f3fe608060405234801561001057600080fd5b50600436106100415760003560e01c80638f965d2b146100465780639e7a13ad14610060578063fe90ead7146101da575b600080fd5b61004e610309565b60408051918252519081900360200190f35b61007d6004803603602081101561007657600080fd5b503561030f565b6040518087815260200180602001806020018681526020018060200185151515158152602001848103845289818151815260200191508051906020019080838360005b838110156100d85781810151838201526020016100c0565b50505050905090810190601f1680156101055780820380516001836020036101000a031916815260200191505b5084810383528851815288516020918201918a019080838360005b83811015610138578181015183820152602001610120565b50505050905090810190601f1680156101655780820380516001836020036101000a031916815260200191505b50848103825286518152865160209182019188019080838360005b83811015610198578181015183820152602001610180565b50505050905090810190601f1680156101c55780820380516001836020036101000a031916815260200191505b50995050505050505050505060405180910390f35b610307600480360360408110156101f057600080fd5b81019060208101813564010000000081111561020b57600080fd5b82018360208201111561021d57600080fd5b8035906020019184600183028401116401000000008311171561023f57600080fd5b91908080601f016020809104026020016040519081016040528093929190818152602001838380828437600092019190915250929594936020810193503591505064010000000081111561029257600080fd5b8201836020820111156102a457600080fd5b803590602001918460018302840111640100000000831117156102c657600080fd5b91908080601f0160208091040260200160405190810160405280939291908181526020018383808284376000920191909152509295506104e7945050505050565b005b60005481565b600160208181526000928352604092839020805481840180548651600296821615610100026000190190911695909504601f810185900485028601850190965285855290949193929091908301828280156103ab5780601f10610380576101008083540402835291602001916103ab565b820191906000526020600020905b81548152906001019060200180831161038e57829003601f168201915b50505060028085018054604080516020601f600019610100600187161502019094169590950492830185900485028101850190915281815295969594509092509083018282801561043d5780601f106104125761010080835404028352916020019161043d565b820191906000526020600020905b81548152906001019060200180831161042057829003601f168201915b50505050600383015460048401805460408051602060026001851615610100026000190190941693909304601f810184900484028201840190925281815295969395939450908301828280156104d45780601f106104a9576101008083540402835291602001916104d4565b820191906000526020600020905b8154815290600101906020018083116104b757829003601f168201915b5050506005909301549192505060ff1686565b6000805460019081018083556040805160c08101825282815260208082018881528284018890526060830187905283518083018552878152608084015260a083018790529386528481529190942084518155915180519293610551939085019291909101906105b3565b506040820151805161056d9160028401916020909101906105b3565b5060608201516003820155608082015180516105939160048401916020909101906105b3565b5060a091909101516005909101805460ff19169115159190911790555050565b828054600181600116156101000203166002900490600052602060002090601f016020900481019282601f106105f457805160ff1916838001178555610621565b82800160010185558215610621579182015b82811115610621578251825591602001919060010190610606565b5061062d929150610631565b5090565b61064b91905b8082111561062d5760008155600101610637565b9056fea265627a7a72315820d48ab9a9cec66254c608d193d442ed0428b1f182ba2a8d1e3682dcfb63eab43364736f6c63430005100032",
  "source": "pragma solidity ^0.5.0;\r\n\r\ncontract Vaccine {\r\n    uint public vaccinatedCount = 0;\r\n    struct Person{\r\n        uint id;\r\n        string name;\r\n        string personId;\r\n        uint256 vaccineDate;\r\n        string vaccineLocation;\r\n        bool vaccinated;\r\n    }\r\n\r\n    mapping(uint => Person) public people;\r\n\r\n    constructor(string memory _name, string memory _personId) public {\r\n        createPerson(_name, _personId);\r\n    }\r\n\r\n    function createPerson(string memory _name, string memory _personId) public{\r\n        vaccinatedCount++;\r\n        people[vaccinatedCount] = Person(vaccinatedCount, _name, _personId, 0, \"\", false);\r\n    }\r\n\r\n\r\n}",
  "sourcePath": "C:/Users/aviel/Desktop/Programming/ETH-Vaccinify/contracts/Vaccine.sol",
  "compiler": {
    "name": "solc",
    "version": "0.5.16+commit.9c3226ce.Emscripten.clang"
  },
  "schemaVersion": "3.3.3",
  "updatedAt": "2021-02-04T17:07:20.047Z",
  "devdoc": {
    "methods": {}
  },
  "userdoc": {
    "methods": {}
  }
}