{
  "contractName": "Vaccine",
  "abi": [
    {
      "inputs": [],
      "payable": false,
      "stateMutability": "nonpayable",
      "type": "constructor"
    },
    {
      "constant": true,
      "inputs": [
        {
          "internalType": "uint256",
          "name": "",
          "type": "uint256"
        }
      ],
      "name": "people",
      "outputs": [
        {
          "internalType": "uint256",
          "name": "id",
          "type": "uint256"
        },
        {
          "internalType": "string",
          "name": "name",
          "type": "string"
        },
        {
          "internalType": "string",
          "name": "personId",
          "type": "string"
        },
        {
          "internalType": "uint256",
          "name": "vaccineDate",
          "type": "uint256"
        },
        {
          "internalType": "string",
          "name": "vaccineLocation",
          "type": "string"
        },
        {
          "internalType": "bool",
          "name": "vaccinated",
          "type": "bool"
        }
      ],
      "payable": false,
      "stateMutability": "view",
      "type": "function"
    },
    {
      "constant": true,
      "inputs": [],
      "name": "vaccinatedCount",
      "outputs": [
        {
          "internalType": "uint256",
          "name": "",
          "type": "uint256"
        }
      ],
      "payable": false,
      "stateMutability": "view",
      "type": "function"
    },
    {
      "constant": false,
      "inputs": [
        {
          "internalType": "string",
          "name": "_name",
          "type": "string"
        },
        {
          "internalType": "string",
          "name": "_personId",
          "type": "string"
        }
      ],
      "name": "createPerson",
      "outputs": [],
      "payable": false,
      "stateMutability": "nonpayable",
      "type": "function"
    },
    {
      "constant": false,
      "inputs": [
        {
          "internalType": "uint256",
          "name": "_id",
          "type": "uint256"
        },
        {
          "internalType": "string",
          "name": "_location",
          "type": "string"
        },
        {
          "internalType": "uint256",
          "name": "_date",
          "type": "uint256"
        }
      ],
      "name": "updatePerson",
      "outputs": [],
      "payable": false,
      "stateMutability": "nonpayable",
      "type": "function"
    }
  ],
  "bytecode": "0x60806040526000805534801561001457600080fd5b50610062604051806040016040528060048152602001631d195cdd60e21b8152506040518060400160405280600981526020016831323334353637383960b81b81525061006760201b60201c565b6101ce565b6000805460019081018083556040805160c08101825282815260208082018881528284018890526060830187905283518083018552878152608084015260a0830187905293865284815291909420845181559151805192936100d193908501929190910190610133565b50604082015180516100ed916002840191602090910190610133565b506060820151600382015560808201518051610113916004840191602090910190610133565b5060a091909101516005909101805460ff19169115159190911790555050565b828054600181600116156101000203166002900490600052602060002090601f016020900481019282601f1061017457805160ff19168380011785556101a1565b828001600101855582156101a1579182015b828111156101a1578251825591602001919060010190610186565b506101ad9291506101b1565b5090565b6101cb91905b808211156101ad57600081556001016101b7565b90565b61076c806101dd6000396000f3fe608060405234801561001057600080fd5b506004361061004c5760003560e01c80638f965d2b146100515780639b0ff46f1461006b5780639e7a13ad1461011c578063fe90ead714610296575b600080fd5b6100596103c3565b60408051918252519081900360200190f35b61011a6004803603606081101561008157600080fd5b813591908101906040810160208201356401000000008111156100a357600080fd5b8201836020820111156100b557600080fd5b803590602001918460018302840111640100000000831117156100d757600080fd5b91908080601f01602080910402602001604051908101604052809392919081815260200183838082843760009201919091525092955050913592506103c9915050565b005b6101396004803603602081101561013257600080fd5b50356103f8565b6040518087815260200180602001806020018681526020018060200185151515158152602001848103845289818151815260200191508051906020019080838360005b8381101561019457818101518382015260200161017c565b50505050905090810190601f1680156101c15780820380516001836020036101000a031916815260200191505b5084810383528851815288516020918201918a019080838360005b838110156101f45781810151838201526020016101dc565b50505050905090810190601f1680156102215780820380516001836020036101000a031916815260200191505b50848103825286518152865160209182019188019080838360005b8381101561025457818101518382015260200161023c565b50505050905090810190601f1680156102815780820380516001836020036101000a031916815260200191505b50995050505050505050505060405180910390f35b61011a600480360360408110156102ac57600080fd5b8101906020810181356401000000008111156102c757600080fd5b8201836020820111156102d957600080fd5b803590602001918460018302840111640100000000831117156102fb57600080fd5b91908080601f016020809104026020016040519081016040528093929190818152602001838380828437600092019190915250929594936020810193503591505064010000000081111561034e57600080fd5b82018360208201111561036057600080fd5b8035906020019184600183028401116401000000008311171561038257600080fd5b91908080601f0160208091040260200160405190810160405280939291908181526020018383808284376000920191909152509295506105d0945050505050565b60005481565b6000838152600160209081526040909120835190916103ef91600484019186019061069c565b50600301555050565b600160208181526000928352604092839020805481840180548651600296821615610100026000190190911695909504601f810185900485028601850190965285855290949193929091908301828280156104945780601f1061046957610100808354040283529160200191610494565b820191906000526020600020905b81548152906001019060200180831161047757829003601f168201915b50505060028085018054604080516020601f60001961010060018716150201909416959095049283018590048502810185019091528181529596959450909250908301828280156105265780601f106104fb57610100808354040283529160200191610526565b820191906000526020600020905b81548152906001019060200180831161050957829003601f168201915b50505050600383015460048401805460408051602060026001851615610100026000190190941693909304601f810184900484028201840190925281815295969395939450908301828280156105bd5780601f10610592576101008083540402835291602001916105bd565b820191906000526020600020905b8154815290600101906020018083116105a057829003601f168201915b5050506005909301549192505060ff1686565b6000805460019081018083556040805160c08101825282815260208082018881528284018890526060830187905283518083018552878152608084015260a08301879052938652848152919094208451815591518051929361063a9390850192919091019061069c565b506040820151805161065691600284019160209091019061069c565b50606082015160038201556080820151805161067c91600484019160209091019061069c565b5060a091909101516005909101805460ff19169115159190911790555050565b828054600181600116156101000203166002900490600052602060002090601f016020900481019282601f106106dd57805160ff191683800117855561070a565b8280016001018555821561070a579182015b8281111561070a5782518255916020019190600101906106ef565b5061071692915061071a565b5090565b61073491905b808211156107165760008155600101610720565b9056fea265627a7a723158200caf1f97ab9e8bd2c2ffa66e46ac8897684b1e94305688ea2250fdc759c9b08b64736f6c63430005100032",
  "source": "pragma solidity ^0.5.0;\r\n\r\ncontract Vaccine {\r\n    uint public vaccinatedCount = 0;\r\n\r\n    struct Person{\r\n        uint id;\r\n        string name;\r\n        string personId;\r\n        uint256 vaccineDate;\r\n        string vaccineLocation;\r\n        bool vaccinated;\r\n    }\r\n\r\n    mapping(uint => Person) public people;\r\n\r\n    constructor() public {\r\n        createPerson(\"test\", \"123456789\");\r\n    }\r\n\r\n    function createPerson(string memory _name, string memory _personId) public{\r\n        vaccinatedCount++;\r\n        people[vaccinatedCount] = Person(vaccinatedCount, _name, _personId, 0, \"\", false);\r\n    }\r\n\r\n    function updatePerson(uint _id, string memory _location, uint256 _date) public{\r\n        Person storage person = people[_id];\r\n        person.vaccineLocation = _location;\r\n        person.vaccineDate = _date;\r\n    }\r\n}",
  "sourcePath": "C:/Users/aviel/Desktop/Programming/ETH-Vaccinify/contracts/Vaccine.sol",
  "compiler": {
    "name": "solc",
    "version": "0.5.16+commit.9c3226ce.Emscripten.clang"
  },
  "schemaVersion": "3.3.3",
  "updatedAt": "2021-02-07T12:19:57.185Z",
  "networkType": "ethereum",
  "devdoc": {
    "methods": {}
  },
  "userdoc": {
    "methods": {}
  }
}